:100000000C94DF000C9407010C9407010C94070179
:100010000C9407010C9407010C9407010C94070140
:100020000C9407010C9407010C9407010C94070130
:100030000C9407010C9407010C9407010C94070120
:100040000C94C6060C9407010C9494060C946E064E
:100050000C9407010C9407010C9407010C94070100
:100060000C9410070C94070100407A10F35A00A07A
:10007000724E18090010A5D4E80000E87648170071
:1000800000E40B54020000CA9A3B000000E1F505B1
:10009000000080969800000040420F000000A086FB
:1000A00001000000102700000000E803000000002D
:1000B0006400000000000A000000000001000000D1
:1000C00000002C76D888DC674F0823DFC1DFAE59EB
:1000D000E1B1B796E5E3E453C63AE651997696E87E
:1000E000E6C28426EB898C9B62ED407C6FFCEFBC02
:1000F0009C9F40F2BAA56FA5F490055A2AF75C932D
:100100006B6CF9676DC11BFCE0E40D47FEF520E662
:10011000B500D0ED902E0300943577050080841E45
:10012000080000204E0A000000C80C333333330FA0
:10013000986E12831141EF8D2114893BE65516CF3D
:10014000FEE6DB18D1844B381BF77C1D901DA4BB49
:10015000E424203284725E228100C9F124ECA1E5FE
:100160003D2700000000240027002A0000000000B6
:10017000250028002B000000000023002600290095
:10018000040404040404040402020202020203033D
:100190000303030301020408102040800102040845
:1001A00010200102040810200000000800020100D5
:1001B0000003040700000000000000002F081124C5
:1001C0001FBECFEFD8E0DEBFCDBF11E0A0E0B1E0B1
:1001D000EAE9F0E202C005900D92A63BB107D9F71B
:1001E00023E0A6EBB1E001C01D92A933B207E1F70D
:1001F00010E0CFEDD0E004C02197FE010E94530E25
:10020000CE3DD107C9F70E9477080C944B100C948F
:10021000000008950895DB0114964D915C911597A7
:100220006D917C91DC01ED91FC910280F381E02DD8
:100230000994AF92BF92CF92DF92EF92FF920F9309
:100240001F93CF93DF936C017B018B01040F151F6C
:10025000EB015E01AE18BF08C017D10759F06991D4
:10026000D601ED91FC910190F081E02DC601099538
:10027000892B79F7C501DF91CF911F910F91FF90E5
:10028000EF90DF90CF90BF90AF900895FC01538D19
:10029000448D252F30E0842F90E0821B930B541760
:1002A00010F0CF96089501970895FC01918D828DED
:1002B000981761F0A28DAE0FBF2FB11D5D968C9186
:1002C000928D9F5F9F73928F90E008958FEF9FEFC5
:1002D0000895FC01918D828D981731F0828DE80F81
:1002E000F11D858D90E008958FEF9FEF0895FC013B
:1002F000918D228D892F90E0805C9F4F821B910908
:100300008F739927089580E892E00E94770121E099
:10031000892B09F420E0822F089580E090E0892B5A
:1003200029F00E94830181110C9400000895FC01C2
:10033000A48DA80FB92FB11DA35ABF4F2C91848D46
:1003400090E001968F739927848FA689B7892C93A3
:10035000A089B1898C91837080648C93938D848DF6
:10036000981306C00288F389E02D80818F7D8083F9
:100370000895EF92FF920F931F93CF93DF93EC01B9
:1003800081E0888F9B8D8C8D98131AC0E889F9893C
:10039000808185FF15C09FB7F894EE89FF8960833F
:1003A000E889F98980818370806480839FBF81E0C0
:1003B00090E0DF91CF911F910F91FF90EF90089502
:1003C000F62E0B8D10E00F5F1F4F0F731127E02EDD
:1003D0008C8D8E110CC00FB607FCFACFE889F98915
:1003E000808185FFF5CFCE010E949701F1CFEB8D83
:1003F000EC0FFD2FF11DE35AFF4FF0829FB7F894E9
:100400000B8FEA89FB8980818062CFCFCF93DF9306
:10041000EC01888D8823B9F0AA89BB89E889F9891C
:100420008C9185FD03C0808186FD0DC00FB607FC51
:10043000F7CF8C9185FFF2CF808185FFEDCFCE0184
:100440000E949701E9CFDF91CF910895833081F029
:1004500028F4813099F08230A9F008958730A9F00E
:100460008830C9F08430B1F4809180008F7D03C062
:10047000809180008F7780938000089584B58F7776
:1004800084BD089584B58F7DFBCF8091B0008F77B8
:100490008093B00008958091B0008F7DF9CF1F93B5
:1004A000CF93DF93282F30E0F901E855FE4F849178
:1004B000F901EC56FE4FD491F901E058FE4FC4917A
:1004C000CC23A9F0162F81110E942602EC2FF0E018
:1004D000EE0FFF1FE459FE4FA591B4918FB7F8942A
:1004E000EC91111108C0D095DE23DC938FBFDF9112
:1004F000CF911F910895DE2BF8CFCF93DF9390E03B
:10050000FC01EC56FE4F249180589E4FFC018491D3
:100510008823D1F090E0880F991FFC01EE59FE4F1F
:10052000A591B491FC01E459FE4FC591D49161119C
:100530000EC09FB7F8948C91E22FE0958E238C9398
:100540002881E223E8839FBFDF91CF9108958FB781
:10055000F894EC91E22BEC938FBFF6CF3FB7F89471
:100560008091640290916502A0916602B091670249
:1005700026B5A89B05C02F3F19F00196A11DB11DFE
:100580003FBFBA2FA92F982F8827BC01CD01620F3A
:10059000711D811D911D42E0660F771F881F991FF5
:1005A0004A95D1F708958F929F92AF92BF92CF92C2
:1005B000DF92EF92FF926B017C010E94AE024B0131
:1005C0005C01C114D104E104F104B9F00E94AE024F
:1005D000681979098A099B09683E7340810591056C
:1005E00080F321E0C21AD108E108F10888EE880EF4
:1005F00083E0981EA11CB11CE4CFFF90EF90DF9028
:10060000CF90BF90AF909F908F900895089585ED03
:100610008093BC008091BC0084FDFCCF10927B02D3
:1006200008952091F601260F3327331F213231051B
:10063000ECF420917B02FC0190E080E0243069F032
:1006400082E00895A091F6012191AC014A525E4FDB
:10065000A40FB52FB11D2C930196861798F38091A6
:10066000F601680F6093F60180E0089581E0089537
:100670000895E0917F0280917E02E81730F4F0E067
:10068000EA54FE4F808190E008958FEF9FEF089528
:1006900090917F0280917E022FEF3FEF981748F4F0
:1006A000E92FF0E0EA54FE4F208130E09F5F909305
:1006B0007F02C901089580917E0290917F02891B7B
:1006C000990B0895CF92DF92EF92FF920F931F93B1
:1006D000CF93DF937C01CB018A0120913D0222233D
:1006E00089F0EB016B01C40ED51ECC15DD0569F058
:1006F0006991D701ED91FC910190F081E02DC70146
:100700000995F3CF642F0E941103C801DF91CF91A7
:100710001F910F91FF90EF90DF90CF900895CF93AE
:10072000DF931F92CDB7DEB7698320913D0222236C
:10073000F9F020917C02203258F021E030E0FC01F9
:100740003383228390E080E00F90DF91CF91089572
:1007500080917D02E82FF0E0E25CFD4F998190836B
:100760008F5F80937D0280937C0281E090E0ECCFEC
:1007700061E0CE0101960E941103F7CFCF93FC01F7
:10078000C48121E020933D02C0935E0210927D025D
:1007900010927C028385682B8DE193E00E948F0389
:1007A00090917C02913208F03FC080917B028111D0
:1007B000FCCF82E080937B0281E080937A028FEF0E
:1007C00080933C0210923B0290933A02AEE3B2E077
:1007D000EAE1F2E080E098132FC0109219028091B4
:1007E0001902CC0FC82BC093190280917902813075
:1007F00039F510927902809119028093BB008091A3
:10080000BC0083FDF8CF85EC8093BC0080917B0217
:100810008230E1F380913C028F3F31F080913C02C5
:10082000803211F080913C0210927D0210927C0285
:1008300010923D02CF9108952D9121938F5FCBCFE0
:1008400085EEE2CF90E080E00895FB01019000206A
:10085000E9F73197AF01461B570BDC01ED91FC9195
:100860000280F381E02D09940F931F93CF93DF93C0
:10087000EC0188819981009759F02A813B812617E4
:10088000370730F081E0DF91CF911F910F910895EC
:100890008B016F5F7F4F0E947E0F009759F0998305
:1008A00088831B830A832C813D81232B59F7FC010C
:1008B0001082E8CF80E0E7CFCF93DF93EC0188810F
:1008C0009981009711F00E94F50E198218821D82FD
:1008D0001C821B821A82DF91CF9108950F931F9380
:1008E000CF93DF93EC010C811D810F5F1F4FB80187
:1008F0000E943404882391F0288139818C819D8164
:100900006AE771E0820F931F0E9444101D830C83DD
:10091000CE01DF91CF911F910F910895CE010E94DA
:100920005C04F6CFEF92FF920F931F93CF93DF9368
:10093000EC01FB01E080F180E114F10411F104818C
:10094000158101151105A9F08C819D81080F191FD2
:10095000B801CE010E943404882399F0288139819E
:100960008C819D81B701820F931F0E9444101D83CB
:100970000C83CE01DF91CF911F910F91FF90EF90EB
:100980000895CE010E945C04F4CFEF92FF920F9382
:100990001F93CF93DF93EC017B018A01BA010E9480
:1009A000340481110BC0CE010E945C04CE01DF91A2
:1009B000CF911F910F91FF90EF9008951D830C83AD
:1009C000B701888199810E944410F0CFEF92FF9285
:1009D0000F931F93CF93DF93CDB7DEB7A1970FB6D9
:1009E000F894DEBF0FBECDBF7C01CB01BA01F70189
:1009F0001182108213821282158214828E010F5F7F
:100A00001F4F22E044E00E94CD0A0097C9F0FC018C
:100A100001900020E9F73197AF01481B590BBC0149
:100A2000C7010E94C504A1960FB6F894DEBF0FBEA1
:100A3000CDBFDF91CF911F910F91FF90EF9008955F
:100A4000C7010E945C04EFCFEF92FF920F931F93B8
:100A5000CF93DF93CDB7DEB762970FB6F894DEBFC2
:100A60000FBECDBF8C01CB01F80111821082138221
:100A70001282158214824AE09E012F5F3F4F790156
:100A8000B9010E94EB0AF70101900020E9F73197C4
:100A9000AF014E195F09B701C8010E94C5046296F3
:100AA0000FB6F894DEBF0FBECDBFDF91CF911F917F
:100AB0000F91FF90EF900895FC0180819181009744
:100AC00011F00C94F50E08950F931F93CF938C01A2
:100AD000C62F0E94BE036C2F6460C8010E94BE0333
:100AE0006C2F6B7FC8010E94BE0383EC90E00197DE
:100AF000F1F7CF911F910F9108950F931F93CF930B
:100B0000DF938C01D62FC42F607F642B0E94640575
:100B100080E1D89FB00111246C2BC801DF91CF91E7
:100B20001F910F910C946405CF93DF9310927F0275
:100B300010927E0210927D0210927C0210927B0233
:100B400081E080937A021092790261E082E10E9452
:100B50004F0261E083E10E944F028091B9008E7FD5
:100B60008093B9008091B9008D7F8093B90088E4AB
:100B70008093B80085E48093BC0089E091E0909375
:100B80007802809377028AE091E0909376028093D6
:100B9000750210922E0380913303823018F098E092
:100BA00090932E038093310362E370E080E090E045
:100BB0000E94D3026091340389E293E00E94BE0355
:100BC00068EE73E080E090E00E94D30260E389E287
:100BD00093E00E946405CBE4D6E4CE010197F1F7DF
:100BE00060E389E293E00E9464052197F1F760E3F6
:100BF00089E293E00E94640583E592E00197F1F7B2
:100C000060E289E293E00E94640560912E036062D5
:100C100040E089E293E00E947D0584E080932F0309
:100C200040E06CE089E293E00E947D0540E061E0F5
:100C300089E293E00E947D05CBE3DFE1CE010197DD
:100C4000F1F782E08093300340E066E089E293E0D0
:100C50000E947D0540E062E089E293E00E947D050C
:100C60002197F1F7DF91CF910895CF93DF93CDB71F
:100C7000DEB728970FB6F894DEBF0FBECDBF98E061
:100C8000E6E0F1E0DE01119601900D929A95E1F710
:100C900090913103961708F46FEF262F30E0220F62
:100CA000331F41E050E04C0F5D1F240F351FF90149
:100CB0006081680F606840E089E293E028960FB693
:100CC000F894DEBF0FBECDBFDF91CF910C947D05B0
:100CD00041E00E947D0581E090E008951F920F920F
:100CE0000FB60F9211242F933F934F935F936F93FF
:100CF0007F938F939F93AF93BF93EF93FF9380E87E
:100D000092E00E949701FF91EF91BF91AF919F9167
:100D10008F917F916F915F914F913F912F910F90A4
:100D20000FBE0F901F9018951F920F920FB60F9243
:100D300011242F938F939F93EF93FF93E091900251
:100D4000F09191028081E0919602F091970282FDEC
:100D50001BC09081809199028F5F8F7320919A02BE
:100D6000821741F0E0919902F0E0E058FD4F958F35
:100D700080939902FF91EF919F918F912F910F9006
:100D80000FBE0F901F9018958081F4CF1F920F9285
:100D90000FB60F9211242F933F938F939F93AF938E
:100DA000BF938091600290916102A0916202B09124
:100DB000630230915F0223E0230F2D3758F501962F
:100DC000A11DB11D20935F02809360029093610288
:100DD000A0936202B09363028091640290916502D5
:100DE000A0916602B09167020196A11DB11D80938A
:100DF000640290936502A0936602B0936702BF916C
:100E0000AF919F918F913F912F910F900FBE0F90B7
:100E10001F90189526E8230F0296A11DB11DD2CF71
:100E20001F920F920FB60F9211242F933F934F935F
:100E30005F936F937F938F939F93AF93BF93EF9342
:100E4000FF938091B900887F803609F44AC0F0F59D
:100E5000883209F4A7C018F5803109F49BC0B8F4B2
:100E6000882309F4F9C0883009F494C0FF91EF9108
:100E7000BF91AF919F918F917F916F915F914F91B2
:100E80003F912F910F900FBE0F901F9018958831B2
:100E900009F488C0803251F780933C0214C080343A
:100EA00009F49DC040F48033B9F38833F9F6809398
:100EB0003C0285ECB0C0803509F485C0883509F462
:100EC00096C0883499F60E940703D0CF883909F478
:100ED0008CC038F5883729F050F4883611F0803707
:100EE00029F683E080937B021092180257C088385D
:100EF00009F47BC0803919F0803809F0B7CF8091B0
:100F00001802803208F071C0E091180281E08E0F63
:100F1000809318028091BB00F0E0E850FE4F808380
:100F20003DC0803B39F0E0F4803A09F479C0883A5A
:100F300009F09CCF84E080937B021092F70110921D
:100F4000F601E0917702F091780209958091F6011F
:100F500081110FC081E08093F6011092D60109C083
:100F6000803C09F4A6CF883C09F4A3CF883B09F064
:100F70007DCFE091F70181E08E0F8093F701F0E0E3
:100F8000EA52FE4F80818093BB009091F7018091DF
:100F9000F60129C0809119028093BB0085EC8093F3
:100FA000BC0064CF90913B0280913A02981758F5AB
:100FB000E0913B0281E08E0F80933B02F0E0E65E21
:100FC000FD4F8081E9CFE0913B0281E08E0F80935D
:100FD0003B028091BB00F0E0E65EFD4F8083909184
:100FE0003B0280913A029817C8F285E8D8CFE09189
:100FF0003B0281E08E0F80933B028091BB00F0E0CA
:10100000E65EFD4F808380917A0281115CCF81E0A2
:101010008093790284EA8093BC0010927B0226CFF1
:1010200085EC8093BC0010927B0280911802803284
:1010300030F4E0911802F0E0E850FE4F1082609129
:10104000180270E0E0917502F091760288EF91E06D
:101050000995109218020ACF10923C0234CFE0E8B2
:10106000F2E01382128288EE93E0A0E0B0E0848385
:101070009583A683B78322E131E03183208325EC79
:1010800030E03587248724EC30E03787268720EC52
:1010900030E0318B208B21EC30E0338B228B22EC43
:1010A00030E0358B248B26EC30E0378B268B118E8D
:1010B000128E138E148EEDE1F3E01382128284837C
:1010C0009583A683B78384E291E091838083E9E2EC
:1010D000F3E01382128286E391E0918380838FE3B1
:1010E000848380E1818782E0828713860895CF938D
:1010F000DF93CDB7DEB72C970FB6F894DEBF0FBEE7
:10110000CDBF789484B5826084BD84B5816084BD90
:1011100085B5826085BD85B5816085BD80916E0095
:10112000816080936E0010928100809181008260C6
:101130008093810080918100816080938100809103
:1011400080008160809380008091B10084608093F2
:10115000B1008091B00081608093B00080917A00EE
:10116000846080937A0080917A00826080937A0014
:1011700080917A00816080937A0080917A00806803
:1011800080937A001092C100E0919002F091910258
:1011900082E08083E0918C02F0918D021082E091D8
:1011A0008E02F0918F028FEC808310929802E09172
:1011B0009402F091950286E08083E0919202F09192
:1011C0009302808180618083E0919202F09193028A
:1011D000808188608083E0919202F0919302808107
:1011E00080688083E0919202F091930280818F7DEC
:1011F00080830E9494050E94940588E080933403C4
:1012000060E089E293E00E94BE0360E082E00E9419
:101210007D02E7E9F1E01491E3E8F1E0E491F0E028
:10122000EE0FFF1FEA58FE4FE590F4901092700207
:101230001092710210927202109273021092740254
:1012400061E083E00E947D0260E083E00E944F0243
:1012500062E170E080E090E00E94D30261E083E010
:101260000E944F028BE990E00197F1F760E083E084
:101270000E947D0280E991E0F70120812123B9F4E9
:101280000197D1F780E090ECA9E7B4EC8093680275
:1012900090936902A0936A02B0936B0280936C02F0
:1012A00090936D02A0936E02B0936F0262C080E9CA
:1012B00091E0F7012081212319F00197D1F7E2CFC6
:1012C00028E2D22E00E8C12C80E991E0F7012081CC
:1012D000212319F40197D1F7D5CF0E94AE024B011B
:1012E0005C0180E991E0F7012081212319F0019749
:1012F000D1F7C8CF0E94AE02681979098A099B0903
:10130000693271058105910538F0EC2DF0E0E8595E
:10131000FD4F8085802B8087069511F4C39400E8EB
:10132000DA94D110D1CF61E083E00E947D0261E0C8
:1013300083E00E944F026091700270E090E080E0D4
:101340000E94570D609368027093690280936A024D
:1013500090936B026091720270E090E080E00E94D6
:10136000570D60936C0270936D0280936E029093A0
:101370006F0290E0C92E90E0D92E80E892E00E94A2
:1013800077017C01892B09F0FCC0609168027091A3
:10139000690280916A0290916B020E94180E2B01E3
:1013A0001B0180906C0290906D02A0906E02B09034
:1013B0006F02EAEAF1E08491E6E9F1E00491E2E803
:1013C000F1E01491112399F081110E942602E12F7E
:1013D000F0E0EE0FFF1FEA58FE4FA591B4918C91FB
:1013E000082391E080E009F490E0E92EF82E121431
:1013F00013040CF0BFC020E030E0A901C501B40126
:101400000E944E0E18160CF0B5C060E080E00E94FD
:1014100035066EE371E089E293E00E94250460E006
:1014200084E00E943506B201CE0101960E94240597
:10143000BE016F5F7F4F89E293E00E940B01CE01F6
:1014400001960E945C0560E087E00E94350663E437
:1014500071E089E293E00E94250460E08BE00E9445
:101460003506B501A401CE0101960E94E604BE0135
:101470006F5F7F4F89E293E00E940B01CE010196DE
:101480000E945C0561E080E00E94350668E471E03E
:10149000E114F10411F064E571E089E293E00E9447
:1014A000250460E671E080E892E00E942504B50121
:1014B000A401CE0101960E94E60418861F821A86B6
:1014C00019861C861B864EE050E06CE771E0CE0169
:1014D00007960E94C504BE016F5F7F4FCE0107963D
:1014E0000E9492040E946E04BC0180E892E00E9477
:1014F0000B01CE0107960E945C05CE0101960E9469
:101500005C05B201CE0101960E94240518861F8257
:101510001A8619861C861B864BE050E06BE871E04A
:10152000CE0107960E94C504BE016F5F7F4FCE01BA
:1015300007960E9492040E946E04BC0180E892E02B
:101540000E940B01CE0107960E945C05CE01019618
:101550000E945C0567E971E080E892E00E94250442
:101560006DEA71E0EF2811F069EA71E080E892E03D
:101570000E94250468EE73E080E090E00E94D302B0
:10158000FCCEC114D10409F4F8CE0E948301882353
:1015900009F4F3CE0E940000F0CEEF920F931F9358
:1015A000CF93DF93E80134E047FD34E1042E000CD3
:1015B000550B57FF03C0519541955109E32E022F5A
:1015C000242FAE010E94100BCE01DF91CF911F910D
:1015D0000F91EF900895BB274A3031F4992322F4FC
:1015E000BDE2909581959F4F0C94F70ABB27FB01B4
:1015F0005527AA27880F991FAA1FA41710F0A41B0C
:1016000083955051B9F7A05DAA3308F0A95DA19365
:10161000009779F7B111B1931192CB010C94470D5A
:10162000A9E0B0E0E6E1FBE00C94E70D6A01F22EE0
:10163000B02E102FFBE3AF2EA01608F41BE31F5FA4
:10164000012F27E0AE014F5F5F4F0E946F0CBC017E
:101650008981982F9970913009F43FC09BE2E1FC99
:1016600004C09E2D9170E0FC3AC05E2D5071E82FB1
:10167000E87083FF46C084E0911101C083E0EF2D44
:10168000E81B8F1508F0E0E0D6018E2F20E25523ED
:1016900051F1992329F0D6019C93C60101966C0162
:1016A00096012D5F3F4FE2FE24C08EE4D6018C935D
:1016B00091E411969C93119712968C93D9018E2FD9
:1016C00090E281111BC0E20FF32FF11D10828EEF0B
:1016D0009FEF2996ECE00C94030E9DE2C6CF90E2BA
:1016E000C4CF2D9381508111FCCFCE0ED11CE0E0F0
:1016F000D0CF8EE6D6018C9391E6DBCF9D938150BF
:10170000E0CF482F447082FF3DC084E0911101C0BA
:1017100083E08F1510F4EF2DE81BD6018E2F20E209
:10172000552309F1992329F0D6019C93C60101960E
:101730006C0196012D5F3F4FE2FE1BC089E4D6018C
:101740008C938EE411968C93119786E412968C9369
:10175000D9018E2F90E2882309F4B5CF9D93815053
:10176000FACF2D9381508111FCCFCE0ED11CE0E039
:10177000D9CF89E6D6018C938EE611968C9311977A
:1017800086E6E4CF9B0177FF02C030E020E0A1E0D5
:10179000B0E0911102C0B0E0A0E0F9013196AE0FC7
:1017A000BF1F8B2C912CBB2009F461C05401EFEFBB
:1017B000AE1ABE0AAA0DBB1DFA161B0619F014F0CC
:1017C0004F2D4A1B511188C0E3FC59C07601A42F4C
:1017D000B0E2A1114FC0C40ED11C992309F45BC023
:1017E00040E0D6011196F60190836D01552309F46E
:1017F00048C0012F060F9A81582F507184FF03C0F3
:10180000913309F4015010160CF047C0093008F06C
:1018100008E0EEE2FE2E5B01A01AB108850191946A
:10182000819491082F3F320729F4D601FC92F601EA
:1018300031966F016217730794F1021713077CF555
:10184000DB01A21BB30BAA24A394B12CAC0EBD1ECA
:10185000AA0DBB1D11968C9121503109D60111960C
:1018600028153905F4F0F60180836D01DBCFB12C2A
:10187000A12CA0CFF701B1937F01A150AACF911164
:10188000B0CFD601942F50E302C05D9391509111D7
:10189000FCCFC40ED11C40E0ACCF01E0BACF80E356
:1018A000DBCF6217730731F4963388F4953311F464
:1018B000552369F0F6018083FD01842F90E28111A8
:1018C00008C0A40FB11D1C9290E080E002CF81E31C
:1018D000F1CF91938150F3CF911183CF8ACF2830EC
:1018E00008F027E03327DA01990F311D87FD916059
:1018F00000966105710539F432602E5F3D9330E347
:101900002A95E1F708959F3F30F080387105610511
:1019100009F03C5F3C5F3D93913008F08068911D79
:10192000DF93CF931F930F93FF92EF92192F987F1E
:101930009695E92F96959695E90FFF27EE53FF4F61
:1019400099273327EE24FF24A701E7010590089487
:10195000079428F4360FE71EF81E491F511D660F25
:10196000771F881F991F0694A1F70590079428F404
:10197000E70EF81E491F561FC11D770F881F991FBC
:10198000661F0694A1F70590079428F4F80E491FE6
:10199000561FC71FD11D880F991F661F771F0694FA
:1019A000A1F70590079420F4490F561FC71FD81FB1
:1019B000990F661F771F881F0694A9F784911095C9
:1019C000177041F0D695C79557954795F794E794CA
:1019D0001A95C1F7E8E6F0E06894159015913591F5
:1019E0006591959105907FE27395E118F10A430B9B
:1019F000560BC90BD009C0F7E10CF11E431F561F4F
:101A0000C91FD01D7EF4703311F48A95E6CFE89497
:101A1000015030F0080F0AF40027021708F4202FB5
:101A20002395022F7A3328F079E37D932A95E9F7FD
:101A300010C07D932A9589F60694979567953795FA
:101A400017951794E118F10A430B560BC90BD009EF
:101A500098F023957E9173957A3308F070E37C9328
:101A60002013B8F77E9170617D9330F0839571E318
:101A70007D9370E32A95E1F71124EF90FF900F9189
:101A80001F91CF91DF91992787FD90950895DC01F3
:101A9000FC01672F71917723E1F7329704C07C91A5
:101AA0006D9370836291AE17BF07C8F30895E894F1
:101AB00009C097FB3EF490958095709561957F4F96
:101AC0008F4F9F4F9923A9F0F92F96E9BB27939544
:101AD000F695879577956795B795F111F8CFFAF454
:101AE000BB0F11F460FF1BC06F5F7F4F8F4F9F4F85
:101AF00016C0882311F096E911C0772321F09EE8E3
:101B0000872F762F05C0662371F096E8862F70E048
:101B100060E02AF09A95660F771F881FDAF7880F22
:101B20009695879597F90895990F0008550FAA0B78
:101B3000E0E8FEEF16161706E807F907C0F01216E0
:101B40001306E407F50798F0621B730B840B950BE3
:101B500039F40A2661F0232B242B252B21F4089538
:101B60000A2609F4A140A6958FEF811D811D0895D5
:101B700057FD9058440F551F59F05F3F71F047953E
:101B8000880F97FB991F61F09F3F79F08795089523
:101B9000121613061406551FF2CF4695F1DF08C042
:101BA000161617061806991FF1CF8695710561055F
:101BB00008940895E894BB2766277727CB0197F907
:101BC00008952F923F924F925F926F927F928F92E1
:101BD0009F92AF92BF92CF92DF92EF92FF920F93BC
:101BE0001F93CF93DF93CDB7DEB7CA1BDB0B0FB6C6
:101BF000F894DEBF0FBECDBF09942A883988488883
:101C00005F846E847D848C849B84AA84B984C88418
:101C1000DF80EE80FD800C811B81AA81B981CE0F0F
:101C2000D11D0FB6F894DEBF0FBECDBFED010895F4
:101C30000E941F0E6894B1110C94DB0D08950E9450
:101C4000C00D88F09F5798F0B92F9927B751B0F081
:101C5000E1F0660F771F881F991F1AF0BA95C9F730
:101C600014C0B13091F00E94DA0DB1E008950C94E7
:101C7000DA0D672F782F8827B85F39F0B93FCCF39A
:101C8000869577956795B395D9F73EF490958095AD
:101C9000709561957F4F8F4F9F4F08950E94940DCF
:101CA00008F48FEF0895EE0FFF1F0590F491E02DDB
:101CB00009940F931F93CF93DF938230910510F413
:101CC00082E090E0E0913703F091380330E020E0CB
:101CD000B0E0A0E0309799F42115310509F44AC02D
:101CE000281B390B24303105D8F58A819B81611579
:101CF000710589F1FB0193838283FE0111C040814C
:101D000051810281138148175907E0F0481759079C
:101D100099F4109761F012960C93129713961C93F6
:101D20003296CF01DF91CF911F910F9108950093CB
:101D3000370310933803F4CF2115310551F04217C2
:101D4000530738F0A901DB019A01BD01DF01F80159
:101D5000C1CFEF01F9CF9093380380933703CDCFF4
:101D6000FE01E20FF31F81939193225031093983D1
:101D70002883D7CF2091350330913603232B41F4AC
:101D800020910201309103013093360320933503F3
:101D900020910001309101012115310541F42DB749
:101DA0003EB74091040150910501241B350BE09191
:101DB0003503F0913603E217F307A0F42E1B3F0B17
:101DC0002817390778F0AC014E5F5F4F24173507AD
:101DD00048F04E0F5F1F50933603409335038193B5
:101DE00091939FCFF0E0E0E09CCFCF93DF930097FB
:101DF000E9F0FC01329713821282A0913703B0916F
:101E00003803ED0130E020E01097A1F4208131810A
:101E1000820F931F2091350330913603281739071D
:101E200009F061C0F0933603E0933503DF91CF9161
:101E30000895EA01CE17DF07E8F54A815B819E012C
:101E400041155105B1F7E901FB83EA8349915991A5
:101E5000C40FD51FEC17FD0761F4808191810296B4
:101E6000840F951FE90199838883828193819B83E5
:101E70008A83F0E0E0E012968D919C911397009791
:101E8000B9F52D913C911197CD010296820F931FC8
:101E900020913503309136032817390739F63097EA
:101EA00051F51092380310923703B0933603A09384
:101EB0003503BCCFD383C28340815181840F951FEA
:101EC000C817D90761F44E5F5F4F88819981480F29
:101ED000591F518340838A819B819383828321157B
:101EE000310509F0B0CFF0933803E09337039ECF6C
:101EF000FD01DC01C0CF13821282D7CFB0E0A0E099
:101F0000E4E8FFE00C94E30D8C01009751F4CB0161
:101F10000E94590E8C01C801CDB7DEB7E0E10C94E8
:101F2000FF0DFC01E60FF71F9C0122503109E2175B
:101F3000F30708F49DC0D901CD91DC911197C61724
:101F4000D70798F0C530D10530F3CE010497861736
:101F5000970708F3C61BD70B2297C193D1936D93B4
:101F60007C93CF010E94F50ED6CF5B01AC1ABD0A5F
:101F70004C018C0E9D1EA0913703B0913803512C5B
:101F8000412CF12CE12C109731F580913503909183
:101F900036038815990509F05CC04616570608F007
:101FA00058C08091000190910101009741F48DB7D4
:101FB0009EB74091040150910501841B950BE817D1
:101FC000F90708F055C0F0933603E0933503F901A3
:101FD00071836083A0CF8D919C91119712966C9024
:101FE000129713967C901397A815B90559F56C01B3
:101FF00042E0C40ED11CCA14DB0420F1AC014A1922
:102000005B09DA011296159780F062827382518320
:102010004083D9016D937C93E114F10471F0D701F1
:102020001396FC93EE93129776CF22968C0F9D1FFA
:10203000F90191838083F301EFCFF0933803E093AC
:10204000370369CF4816590608F42C017D01D301E6
:102050009ACFCB010E94590E7C01009749F0AE0146
:10206000B8010E943B10C8010E94F50E870153CFB2
:1020700010E000E050CFFB01DC0102C001900D92A6
:1020800041505040D8F70895FB01DC0101900D92BA
:0A2090000020E1F70895F894FFCF57
:10209A0000003903800000004000140054000000D2
:1020AA000000B901190146010602770155016901CB
:1020BA00000000008F036203220438035B03480315
:1020CA003903000000006806190122040603687536
:1020DA006D3A0074656D3A005241494E494E4720A7
:1020EA00202020004E4F54205241494E494E47006D
:1020FA005468652053656E736F7220526561646916
:10210A006E677320617265203A200A0074656D70EB
:10211A0065726174757265203A200068756D69642C
:10212A00697479203A20005261696E696E6720539A
:10213A007461747573203A20004E4F5420524149FD
:06214A004E494E470A0059
:107E0000112484B714BE81FFF0D085E080938100F7
:107E100082E08093C00088E18093C10086E0809377
:107E2000C20080E18093C4008EE0C9D0259A86E02C
:107E300020E33CEF91E0309385002093840096BBD3
:107E4000B09BFECF1D9AA8958150A9F7CC24DD24C4
:107E500088248394B5E0AB2EA1E19A2EF3E0BF2EE7
:107E6000A2D0813461F49FD0082FAFD0023811F036
:107E7000013811F484E001C083E08DD089C08234E0
:107E800011F484E103C0853419F485E0A6D080C0E4
:107E9000853579F488D0E82EFF2485D0082F10E0AE
:107EA000102F00270E291F29000F111F8ED06801E7
:107EB0006FC0863521F484E090D080E0DECF843638
:107EC00009F040C070D06FD0082F6DD080E0C81688
:107ED00080E7D80618F4F601B7BEE895C0E0D1E017
:107EE00062D089930C17E1F7F0E0CF16F0E7DF06D8
:107EF00018F0F601B7BEE89568D007B600FCFDCFD4
:107F0000A601A0E0B1E02C9130E011968C91119780
:107F100090E0982F8827822B932B1296FA010C0160
:107F200087BEE89511244E5F5F4FF1E0A038BF0790
:107F300051F7F601A7BEE89507B600FCFDCF97BE46
:107F4000E89526C08437B1F42ED02DD0F82E2BD052
:107F50003CD0F601EF2C8F010F5F1F4F84911BD097
:107F6000EA94F801C1F70894C11CD11CFA94CF0C13
:107F7000D11C0EC0853739F428D08EE10CD085E9AC
:107F80000AD08FE07ACF813511F488E018D01DD067
:107F900080E101D065CF982F8091C00085FFFCCF94
:107FA0009093C60008958091C00087FFFCCF809118
:107FB000C00084FD01C0A8958091C6000895E0E648
:107FC000F0E098E1908380830895EDDF803219F02E
:107FD00088E0F5DFFFCF84E1DECF1F93182FE3DFCA
:107FE0001150E9F7F2DF1F91089580E0E8DFEE27F6
:047FF000FF270994CA
:027FFE00040479
:0400000300007E007B
:00000001FF
